{
  "contractName": "ScabShop",
  "abi": [
    {
      "inputs": [],
      "stateMutability": "nonpayable",
      "type": "constructor"
    },
    {
      "anonymous": false,
      "inputs": [
        {
          "indexed": true,
          "internalType": "address",
          "name": "owner",
          "type": "address"
        },
        {
          "indexed": true,
          "internalType": "address",
          "name": "approved",
          "type": "address"
        },
        {
          "indexed": true,
          "internalType": "uint256",
          "name": "tokenId",
          "type": "uint256"
        }
      ],
      "name": "Approval",
      "type": "event"
    },
    {
      "anonymous": false,
      "inputs": [
        {
          "indexed": true,
          "internalType": "address",
          "name": "owner",
          "type": "address"
        },
        {
          "indexed": true,
          "internalType": "address",
          "name": "operator",
          "type": "address"
        },
        {
          "indexed": false,
          "internalType": "bool",
          "name": "approved",
          "type": "bool"
        }
      ],
      "name": "ApprovalForAll",
      "type": "event"
    },
    {
      "anonymous": false,
      "inputs": [
        {
          "indexed": true,
          "internalType": "address",
          "name": "previousOwner",
          "type": "address"
        },
        {
          "indexed": true,
          "internalType": "address",
          "name": "newOwner",
          "type": "address"
        }
      ],
      "name": "OwnershipTransferred",
      "type": "event"
    },
    {
      "anonymous": false,
      "inputs": [
        {
          "indexed": true,
          "internalType": "bytes32",
          "name": "role",
          "type": "bytes32"
        },
        {
          "indexed": true,
          "internalType": "bytes32",
          "name": "previousAdminRole",
          "type": "bytes32"
        },
        {
          "indexed": true,
          "internalType": "bytes32",
          "name": "newAdminRole",
          "type": "bytes32"
        }
      ],
      "name": "RoleAdminChanged",
      "type": "event"
    },
    {
      "anonymous": false,
      "inputs": [
        {
          "indexed": true,
          "internalType": "bytes32",
          "name": "role",
          "type": "bytes32"
        },
        {
          "indexed": true,
          "internalType": "address",
          "name": "account",
          "type": "address"
        },
        {
          "indexed": true,
          "internalType": "address",
          "name": "sender",
          "type": "address"
        }
      ],
      "name": "RoleGranted",
      "type": "event"
    },
    {
      "anonymous": false,
      "inputs": [
        {
          "indexed": true,
          "internalType": "bytes32",
          "name": "role",
          "type": "bytes32"
        },
        {
          "indexed": true,
          "internalType": "address",
          "name": "account",
          "type": "address"
        },
        {
          "indexed": true,
          "internalType": "address",
          "name": "sender",
          "type": "address"
        }
      ],
      "name": "RoleRevoked",
      "type": "event"
    },
    {
      "anonymous": false,
      "inputs": [
        {
          "indexed": false,
          "internalType": "uint256",
          "name": "id",
          "type": "uint256"
        }
      ],
      "name": "Stamp",
      "type": "event"
    },
    {
      "anonymous": false,
      "inputs": [
        {
          "indexed": true,
          "internalType": "address",
          "name": "from",
          "type": "address"
        },
        {
          "indexed": true,
          "internalType": "address",
          "name": "to",
          "type": "address"
        },
        {
          "indexed": true,
          "internalType": "uint256",
          "name": "tokenId",
          "type": "uint256"
        }
      ],
      "name": "Transfer",
      "type": "event"
    },
    {
      "inputs": [],
      "name": "DEFAULT_ADMIN_ROLE",
      "outputs": [
        {
          "internalType": "bytes32",
          "name": "",
          "type": "bytes32"
        }
      ],
      "stateMutability": "view",
      "type": "function",
      "constant": true
    },
    {
      "inputs": [],
      "name": "MINTER_ROLE",
      "outputs": [
        {
          "internalType": "bytes32",
          "name": "",
          "type": "bytes32"
        }
      ],
      "stateMutability": "view",
      "type": "function",
      "constant": true
    },
    {
      "inputs": [
        {
          "internalType": "address",
          "name": "to",
          "type": "address"
        },
        {
          "internalType": "uint256",
          "name": "tokenId",
          "type": "uint256"
        }
      ],
      "name": "approve",
      "outputs": [],
      "stateMutability": "nonpayable",
      "type": "function"
    },
    {
      "inputs": [
        {
          "internalType": "address",
          "name": "owner",
          "type": "address"
        }
      ],
      "name": "balanceOf",
      "outputs": [
        {
          "internalType": "uint256",
          "name": "",
          "type": "uint256"
        }
      ],
      "stateMutability": "view",
      "type": "function",
      "constant": true
    },
    {
      "inputs": [
        {
          "internalType": "uint256",
          "name": "",
          "type": "uint256"
        }
      ],
      "name": "contentHash",
      "outputs": [
        {
          "internalType": "string",
          "name": "",
          "type": "string"
        }
      ],
      "stateMutability": "view",
      "type": "function",
      "constant": true
    },
    {
      "inputs": [
        {
          "internalType": "uint256",
          "name": "tokenId",
          "type": "uint256"
        }
      ],
      "name": "getApproved",
      "outputs": [
        {
          "internalType": "address",
          "name": "",
          "type": "address"
        }
      ],
      "stateMutability": "view",
      "type": "function",
      "constant": true
    },
    {
      "inputs": [
        {
          "internalType": "bytes32",
          "name": "role",
          "type": "bytes32"
        }
      ],
      "name": "getRoleAdmin",
      "outputs": [
        {
          "internalType": "bytes32",
          "name": "",
          "type": "bytes32"
        }
      ],
      "stateMutability": "view",
      "type": "function",
      "constant": true
    },
    {
      "inputs": [
        {
          "internalType": "bytes32",
          "name": "role",
          "type": "bytes32"
        },
        {
          "internalType": "address",
          "name": "account",
          "type": "address"
        }
      ],
      "name": "grantRole",
      "outputs": [],
      "stateMutability": "nonpayable",
      "type": "function"
    },
    {
      "inputs": [
        {
          "internalType": "bytes32",
          "name": "role",
          "type": "bytes32"
        },
        {
          "internalType": "address",
          "name": "account",
          "type": "address"
        }
      ],
      "name": "hasRole",
      "outputs": [
        {
          "internalType": "bool",
          "name": "",
          "type": "bool"
        }
      ],
      "stateMutability": "view",
      "type": "function",
      "constant": true
    },
    {
      "inputs": [
        {
          "internalType": "address",
          "name": "owner",
          "type": "address"
        },
        {
          "internalType": "address",
          "name": "operator",
          "type": "address"
        }
      ],
      "name": "isApprovedForAll",
      "outputs": [
        {
          "internalType": "bool",
          "name": "",
          "type": "bool"
        }
      ],
      "stateMutability": "view",
      "type": "function",
      "constant": true
    },
    {
      "inputs": [
        {
          "internalType": "uint256",
          "name": "",
          "type": "uint256"
        }
      ],
      "name": "metadataHash",
      "outputs": [
        {
          "internalType": "string",
          "name": "",
          "type": "string"
        }
      ],
      "stateMutability": "view",
      "type": "function",
      "constant": true
    },
    {
      "inputs": [],
      "name": "name",
      "outputs": [
        {
          "internalType": "string",
          "name": "",
          "type": "string"
        }
      ],
      "stateMutability": "view",
      "type": "function",
      "constant": true
    },
    {
      "inputs": [],
      "name": "owner",
      "outputs": [
        {
          "internalType": "address",
          "name": "",
          "type": "address"
        }
      ],
      "stateMutability": "view",
      "type": "function",
      "constant": true
    },
    {
      "inputs": [
        {
          "internalType": "uint256",
          "name": "tokenId",
          "type": "uint256"
        }
      ],
      "name": "ownerOf",
      "outputs": [
        {
          "internalType": "address",
          "name": "",
          "type": "address"
        }
      ],
      "stateMutability": "view",
      "type": "function",
      "constant": true
    },
    {
      "inputs": [],
      "name": "renounceOwnership",
      "outputs": [],
      "stateMutability": "nonpayable",
      "type": "function"
    },
    {
      "inputs": [
        {
          "internalType": "bytes32",
          "name": "role",
          "type": "bytes32"
        },
        {
          "internalType": "address",
          "name": "account",
          "type": "address"
        }
      ],
      "name": "renounceRole",
      "outputs": [],
      "stateMutability": "nonpayable",
      "type": "function"
    },
    {
      "inputs": [
        {
          "internalType": "bytes32",
          "name": "role",
          "type": "bytes32"
        },
        {
          "internalType": "address",
          "name": "account",
          "type": "address"
        }
      ],
      "name": "revokeRole",
      "outputs": [],
      "stateMutability": "nonpayable",
      "type": "function"
    },
    {
      "inputs": [
        {
          "internalType": "address",
          "name": "from",
          "type": "address"
        },
        {
          "internalType": "address",
          "name": "to",
          "type": "address"
        },
        {
          "internalType": "uint256",
          "name": "tokenId",
          "type": "uint256"
        }
      ],
      "name": "safeTransferFrom",
      "outputs": [],
      "stateMutability": "nonpayable",
      "type": "function"
    },
    {
      "inputs": [
        {
          "internalType": "address",
          "name": "from",
          "type": "address"
        },
        {
          "internalType": "address",
          "name": "to",
          "type": "address"
        },
        {
          "internalType": "uint256",
          "name": "tokenId",
          "type": "uint256"
        },
        {
          "internalType": "bytes",
          "name": "_data",
          "type": "bytes"
        }
      ],
      "name": "safeTransferFrom",
      "outputs": [],
      "stateMutability": "nonpayable",
      "type": "function"
    },
    {
      "inputs": [
        {
          "internalType": "address",
          "name": "operator",
          "type": "address"
        },
        {
          "internalType": "bool",
          "name": "approved",
          "type": "bool"
        }
      ],
      "name": "setApprovalForAll",
      "outputs": [],
      "stateMutability": "nonpayable",
      "type": "function"
    },
    {
      "inputs": [],
      "name": "symbol",
      "outputs": [
        {
          "internalType": "string",
          "name": "",
          "type": "string"
        }
      ],
      "stateMutability": "view",
      "type": "function",
      "constant": true
    },
    {
      "inputs": [
        {
          "internalType": "address",
          "name": "from",
          "type": "address"
        },
        {
          "internalType": "address",
          "name": "to",
          "type": "address"
        },
        {
          "internalType": "uint256",
          "name": "tokenId",
          "type": "uint256"
        }
      ],
      "name": "transferFrom",
      "outputs": [],
      "stateMutability": "nonpayable",
      "type": "function"
    },
    {
      "inputs": [
        {
          "internalType": "address",
          "name": "newOwner",
          "type": "address"
        }
      ],
      "name": "transferOwnership",
      "outputs": [],
      "stateMutability": "nonpayable",
      "type": "function"
    },
    {
      "inputs": [
        {
          "internalType": "bytes4",
          "name": "_interfaceId",
          "type": "bytes4"
        }
      ],
      "name": "supportsInterface",
      "outputs": [
        {
          "internalType": "bool",
          "name": "",
          "type": "bool"
        }
      ],
      "stateMutability": "view",
      "type": "function",
      "constant": true
    },
    {
      "inputs": [
        {
          "internalType": "uint256",
          "name": "_id",
          "type": "uint256"
        }
      ],
      "name": "tokenURI",
      "outputs": [
        {
          "internalType": "string",
          "name": "",
          "type": "string"
        }
      ],
      "stateMutability": "view",
      "type": "function",
      "constant": true
    },
    {
      "inputs": [
        {
          "internalType": "uint256",
          "name": "_id",
          "type": "uint256"
        }
      ],
      "name": "metadataURI",
      "outputs": [
        {
          "internalType": "string",
          "name": "",
          "type": "string"
        }
      ],
      "stateMutability": "view",
      "type": "function",
      "constant": true
    },
    {
      "inputs": [
        {
          "internalType": "uint256",
          "name": "_id",
          "type": "uint256"
        }
      ],
      "name": "contentURI",
      "outputs": [
        {
          "internalType": "string",
          "name": "",
          "type": "string"
        }
      ],
      "stateMutability": "view",
      "type": "function",
      "constant": true
    },
    {
      "inputs": [
        {
          "internalType": "uint256",
          "name": "_id",
          "type": "uint256"
        }
      ],
      "name": "originalOf",
      "outputs": [
        {
          "internalType": "uint256",
          "name": "",
          "type": "uint256"
        }
      ],
      "stateMutability": "view",
      "type": "function",
      "constant": true
    },
    {
      "inputs": [
        {
          "internalType": "uint256",
          "name": "_id",
          "type": "uint256"
        }
      ],
      "name": "artistOf",
      "outputs": [
        {
          "internalType": "address",
          "name": "",
          "type": "address"
        }
      ],
      "stateMutability": "view",
      "type": "function",
      "constant": true
    },
    {
      "inputs": [
        {
          "internalType": "string",
          "name": "_metadata",
          "type": "string"
        },
        {
          "internalType": "string",
          "name": "_content",
          "type": "string"
        },
        {
          "internalType": "uint256",
          "name": "_royalty",
          "type": "uint256"
        }
      ],
      "name": "mint",
      "outputs": [
        {
          "internalType": "uint256",
          "name": "",
          "type": "uint256"
        }
      ],
      "stateMutability": "nonpayable",
      "type": "function"
    },
    {
      "inputs": [
        {
          "internalType": "uint256",
          "name": "_id",
          "type": "uint256"
        },
        {
          "internalType": "string",
          "name": "_metadata",
          "type": "string"
        },
        {
          "internalType": "string",
          "name": "_content",
          "type": "string"
        }
      ],
      "name": "stamp",
      "outputs": [],
      "stateMutability": "nonpayable",
      "type": "function"
    },
    {
      "inputs": [
        {
          "internalType": "uint256",
          "name": "_id",
          "type": "uint256"
        }
      ],
      "name": "isStamped",
      "outputs": [
        {
          "internalType": "bool",
          "name": "",
          "type": "bool"
        }
      ],
      "stateMutability": "view",
      "type": "function",
      "constant": true
    },
    {
      "inputs": [
        {
          "internalType": "uint256",
          "name": "_id",
          "type": "uint256"
        },
        {
          "internalType": "string",
          "name": "_metadata",
          "type": "string"
        },
        {
          "internalType": "string",
          "name": "_content",
          "type": "string"
        },
        {
          "internalType": "uint256",
          "name": "_royalty",
          "type": "uint256"
        },
        {
          "internalType": "uint256",
          "name": "_quantity",
          "type": "uint256"
        }
      ],
      "name": "mintPrints",
      "outputs": [
        {
          "internalType": "uint256[]",
          "name": "",
          "type": "uint256[]"
        }
      ],
      "stateMutability": "nonpayable",
      "type": "function"
    },
    {
      "inputs": [
        {
          "internalType": "uint256",
          "name": "_id",
          "type": "uint256"
        },
        {
          "internalType": "uint256",
          "name": "value",
          "type": "uint256"
        }
      ],
      "name": "royaltyInfo",
      "outputs": [
        {
          "internalType": "address",
          "name": "receiver",
          "type": "address"
        },
        {
          "internalType": "uint256",
          "name": "royaltyAmount",
          "type": "uint256"
        }
      ],
      "stateMutability": "view",
      "type": "function",
      "constant": true
    }
  ],
  "bytecode": "0x60806040523480156200001157600080fd5b506040518060400160405280600881526020017f5363616253686f700000000000000000000000000000000000000000000000008152506040518060400160405280600681526020017f534342534850000000000000000000000000000000000000000000000000000081525081600090805190602001906200009692919062000360565b508060019080519060200190620000af92919062000360565b505050620000d2620000c66200011f60201b60201c565b6200012760201b60201c565b620000e76000801b33620001ed60201b60201c565b620001197f9f2df0fed2c77648de5860a4cc508cd0818c85b8b8a1ab4ceeef8d981c8956a633620001ed60201b60201c565b62000475565b600033905090565b6000600660009054906101000a900473ffffffffffffffffffffffffffffffffffffffff16905081600660006101000a81548173ffffffffffffffffffffffffffffffffffffffff021916908373ffffffffffffffffffffffffffffffffffffffff1602179055508173ffffffffffffffffffffffffffffffffffffffff168173ffffffffffffffffffffffffffffffffffffffff167f8be0079c531659141344cd1fd0a4f28419497f9722a3daafe3b4186f6b6457e060405160405180910390a35050565b620001ff82826200020360201b60201c565b5050565b620002158282620002f560201b60201c565b620002f15760016007600084815260200190815260200160002060000160008373ffffffffffffffffffffffffffffffffffffffff1673ffffffffffffffffffffffffffffffffffffffff16815260200190815260200160002060006101000a81548160ff021916908315150217905550620002966200011f60201b60201c565b73ffffffffffffffffffffffffffffffffffffffff168173ffffffffffffffffffffffffffffffffffffffff16837f2f8788117e7eff1d82e926ec794901d17c78024a50270940304540a733656f0d60405160405180910390a45b5050565b60006007600084815260200190815260200160002060000160008373ffffffffffffffffffffffffffffffffffffffff1673ffffffffffffffffffffffffffffffffffffffff16815260200190815260200160002060009054906101000a900460ff16905092915050565b8280546200036e9062000410565b90600052602060002090601f016020900481019282620003925760008555620003de565b82601f10620003ad57805160ff1916838001178555620003de565b82800160010185558215620003de579182015b82811115620003dd578251825591602001919060010190620003c0565b5b509050620003ed9190620003f1565b5090565b5b808211156200040c576000816000905550600101620003f2565b5090565b600060028204905060018216806200042957607f821691505b6020821081141562000440576200043f62000446565b5b50919050565b7f4e487b7100000000000000000000000000000000000000000000000000000000600052602260045260246000fd5b614a1280620004856000396000f3fe608060405234801561001057600080fd5b50600436106102065760003560e01c806370a082311161011a578063c87b56dd116100ad578063d547741f1161007c578063d547741f14610670578063e39d84b51461068c578063e985e9c5146106a8578063f2fde38b146106d8578063f3e0c290146106f457610206565b8063c87b56dd146105c2578063cb9e2f01146105f2578063d41d9a2714610622578063d53913931461065257610206565b806395d89b41116100e957806395d89b411461054e578063a217fddf1461056c578063a22cb4651461058a578063b88d4fde146105a657610206565b806370a08231146104c6578063715018a6146104f65780638da5cb5b1461050057806391d148541461051e57610206565b8063248a9ca31161019d57806336568abe1161016c57806336568abe146103fe57806342842e0e1461041a5780635370c0a2146104365780636352211e146104665780636e667c351461049657610206565b8063248a9ca3146103515780632a55205a146103815780632a74c8dc146103b25780632f2ff15d146103e257610206565b80630c183843116101d95780630c183843146102a55780630fddeb4f146102d5578063219cc8bc1461030557806323b872dd1461033557610206565b806301ffc9a71461020b57806306fdde031461023b578063081812fc14610259578063095ea7b314610289575b600080fd5b6102256004803603810190610220919061318f565b610724565b6040516102329190613a8d565b60405180910390f35b610243610806565b6040516102509190613ac3565b60405180910390f35b610273600480360381019061026e9190613260565b610898565b60405161028091906139db565b60405180910390f35b6102a3600480360381019061029e91906130ee565b61091d565b005b6102bf60048036038101906102ba9190613260565b610a35565b6040516102cc9190613ac3565b60405180910390f35b6102ef60048036038101906102ea9190613260565b610a70565b6040516102fc9190613de5565b60405180910390f35b61031f600480360381019061031a9190613260565b610ae2565b60405161032c9190613ac3565b60405180910390f35b61034f600480360381019061034a9190612fe8565b610b82565b005b61036b6004803603810190610366919061312a565b610be2565b6040516103789190613aa8565b60405180910390f35b61039b600480360381019061039691906133af565b610c02565b6040516103a9929190613a42565b60405180910390f35b6103cc60048036038101906103c79190613260565b610c70565b6040516103d99190613a8d565b60405180910390f35b6103fc60048036038101906103f79190613153565b610c9a565b005b61041860048036038101906104139190613153565b610cc3565b005b610434600480360381019061042f9190612fe8565b610d46565b005b610450600480360381019061044b9190613260565b610d66565b60405161045d91906139db565b60405180910390f35b610480600480360381019061047b9190613260565b610da3565b60405161048d91906139db565b60405180910390f35b6104b060048036038101906104ab9190613260565b610e55565b6040516104bd9190613ac3565b60405180910390f35b6104e060048036038101906104db9190612f83565b610e90565b6040516104ed9190613de5565b60405180910390f35b6104fe610f48565b005b610508610fd0565b60405161051591906139db565b60405180910390f35b61053860048036038101906105339190613153565b610ffa565b6040516105459190613a8d565b60405180910390f35b610556611065565b6040516105639190613ac3565b60405180910390f35b6105746110f7565b6040516105819190613aa8565b60405180910390f35b6105a4600480360381019061059f91906130b2565b6110fe565b005b6105c060048036038101906105bb9190613037565b611114565b005b6105dc60048036038101906105d79190613260565b611176565b6040516105e99190613ac3565b60405180910390f35b61060c60048036038101906106079190613308565b6111b1565b6040516106199190613a6b565b60405180910390f35b61063c600480360381019061063791906131e1565b61158c565b6040516106499190613de5565b60405180910390f35b61065a611719565b6040516106679190613aa8565b60405180910390f35b61068a60048036038101906106859190613153565b61173d565b005b6106a660048036038101906106a19190613289565b611766565b005b6106c260048036038101906106bd9190612fac565b6119af565b6040516106cf9190613a8d565b60405180910390f35b6106f260048036038101906106ed9190612f83565b611a43565b005b61070e60048036038101906107099190613260565b611b3b565b60405161071b9190613ac3565b60405180910390f35b60007f80ac58cd000000000000000000000000000000000000000000000000000000007bffffffffffffffffffffffffffffffffffffffffffffffffffffffff1916827bffffffffffffffffffffffffffffffffffffffffffffffffffffffff191614806107ef57507f7965db0b000000000000000000000000000000000000000000000000000000007bffffffffffffffffffffffffffffffffffffffffffffffffffffffff1916827bffffffffffffffffffffffffffffffffffffffffffffffffffffffff1916145b806107ff57506107fe82611bdb565b5b9050919050565b60606000805461081590614117565b80601f016020809104026020016040519081016040528092919081815260200182805461084190614117565b801561088e5780601f106108635761010080835404028352916020019161088e565b820191906000526020600020905b81548152906001019060200180831161087157829003601f168201915b5050505050905090565b60006108a382611c55565b6108e2576040517f08c379a00000000000000000000000000000000000000000000000000000000081526004016108d990613ce5565b60405180910390fd5b6004600083815260200190815260200160002060009054906101000a900473ffffffffffffffffffffffffffffffffffffffff169050919050565b600061092882610da3565b90508073ffffffffffffffffffffffffffffffffffffffff168373ffffffffffffffffffffffffffffffffffffffff161415610999576040517f08c379a000000000000000000000000000000000000000000000000000000000815260040161099090613d45565b60405180910390fd5b8073ffffffffffffffffffffffffffffffffffffffff166109b8611cc1565b73ffffffffffffffffffffffffffffffffffffffff1614806109e757506109e6816109e1611cc1565b6119af565b5b610a26576040517f08c379a0000000000000000000000000000000000000000000000000000000008152600401610a1d90613c45565b60405180910390fd5b610a308383611cc9565b505050565b606060096000838152602001908152602001600020604051602001610a5a919061397f565b6040516020818303038152906040529050919050565b600080600e60008481526020019081526020016000205411610ac7576040517f08c379a0000000000000000000000000000000000000000000000000000000008152600401610abe90613c25565b60405180910390fd5b600e6000838152602001908152602001600020549050919050565b60096020528060005260406000206000915090508054610b0190614117565b80601f0160208091040260200160405190810160405280929190818152602001828054610b2d90614117565b8015610b7a5780601f10610b4f57610100808354040283529160200191610b7a565b820191906000526020600020905b815481529060010190602001808311610b5d57829003601f168201915b505050505081565b610b93610b8d611cc1565b82611d82565b610bd2576040517f08c379a0000000000000000000000000000000000000000000000000000000008152600401610bc990613d65565b60405180910390fd5b610bdd838383611e60565b505050565b600060076000838152602001908152602001600020600101549050919050565b600080600c600085815260200190815260200160002060009054906101000a900473ffffffffffffffffffffffffffffffffffffffff169150612710600d60008681526020019081526020016000205484610c5d9190613f9f565b610c679190613f6e565b90509250929050565b6000600b600083815260200190815260200160002060009054906101000a900460ff169050919050565b610ca382610be2565b610cb481610caf611cc1565b6120bc565b610cbe8383612159565b505050565b610ccb611cc1565b73ffffffffffffffffffffffffffffffffffffffff168173ffffffffffffffffffffffffffffffffffffffff1614610d38576040517f08c379a0000000000000000000000000000000000000000000000000000000008152600401610d2f90613dc5565b60405180910390fd5b610d42828261223a565b5050565b610d6183838360405180602001604052806000815250611114565b505050565b6000600c600083815260200190815260200160002060009054906101000a900473ffffffffffffffffffffffffffffffffffffffff169050919050565b6000806002600084815260200190815260200160002060009054906101000a900473ffffffffffffffffffffffffffffffffffffffff169050600073ffffffffffffffffffffffffffffffffffffffff168173ffffffffffffffffffffffffffffffffffffffff161415610e4c576040517f08c379a0000000000000000000000000000000000000000000000000000000008152600401610e4390613c85565b60405180910390fd5b80915050919050565b6060600a6000838152602001908152602001600020604051602001610e7a919061397f565b6040516020818303038152906040529050919050565b60008073ffffffffffffffffffffffffffffffffffffffff168273ffffffffffffffffffffffffffffffffffffffff161415610f01576040517f08c379a0000000000000000000000000000000000000000000000000000000008152600401610ef890613c65565b60405180910390fd5b600360008373ffffffffffffffffffffffffffffffffffffffff1673ffffffffffffffffffffffffffffffffffffffff168152602001908152602001600020549050919050565b610f50611cc1565b73ffffffffffffffffffffffffffffffffffffffff16610f6e610fd0565b73ffffffffffffffffffffffffffffffffffffffff1614610fc4576040517f08c379a0000000000000000000000000000000000000000000000000000000008152600401610fbb90613d05565b60405180910390fd5b610fce600061231c565b565b6000600660009054906101000a900473ffffffffffffffffffffffffffffffffffffffff16905090565b60006007600084815260200190815260200160002060000160008373ffffffffffffffffffffffffffffffffffffffff1673ffffffffffffffffffffffffffffffffffffffff16815260200190815260200160002060009054906101000a900460ff16905092915050565b60606001805461107490614117565b80601f01602080910402602001604051908101604052809291908181526020018280546110a090614117565b80156110ed5780601f106110c2576101008083540402835291602001916110ed565b820191906000526020600020905b8154815290600101906020018083116110d057829003601f168201915b5050505050905090565b6000801b81565b611110611109611cc1565b83836123e2565b5050565b61112561111f611cc1565b83611d82565b611164576040517f08c379a000000000000000000000000000000000000000000000000000000000815260040161115b90613d65565b60405180910390fd5b6111708484848461254f565b50505050565b60606009600083815260200190815260200160002060405160200161119b919061397f565b6040516020818303038152906040529050919050565b60607f9f2df0fed2c77648de5860a4cc508cd0818c85b8b8a1ab4ceeef8d981c8956a66111e5816111e0611cc1565b6120bc565b600c600088815260200190815260200160002060009054906101000a900473ffffffffffffffffffffffffffffffffffffffff1673ffffffffffffffffffffffffffffffffffffffff163373ffffffffffffffffffffffffffffffffffffffff1614611286576040517f08c379a000000000000000000000000000000000000000000000000000000000815260040161127d90613da5565b60405180910390fd5b60011515600b600089815260200190815260200160002060009054906101000a900460ff161515146112ed576040517f08c379a00000000000000000000000000000000000000000000000000000000081526004016112e490613b45565b60405180910390fd5b612710841115611332576040517f08c379a000000000000000000000000000000000000000000000000000000000815260040161132990613b25565b60405180910390fd5b6000607d67ffffffffffffffff811115611375577f4e487b7100000000000000000000000000000000000000000000000000000000600052604160045260246000fd5b6040519080825280602002602001820160405280156113a35781602001602082028036833780820191505090505b50905060005b8481101561157d576113bb60086125ab565b60006113c760086125c1565b90506113d333826125cf565b88600960008c815260200190815260200160002090805190602001906113fa929190612d92565b5087600a60008c81526020019081526020016000209080519060200190611422929190612d92565b50600c60008b815260200190815260200160002060009054906101000a900473ffffffffffffffffffffffffffffffffffffffff16600c600083815260200190815260200160002060006101000a81548173ffffffffffffffffffffffffffffffffffffffff021916908373ffffffffffffffffffffffffffffffffffffffff160217905550600b60008b815260200190815260200160002060009054906101000a900460ff16600b600083815260200190815260200160002060006101000a81548160ff02191690831515021790555086600d60008381526020019081526020016000208190555089600e6000838152602001908152602001600020819055508083838151811061155d577f4e487b7100000000000000000000000000000000000000000000000000000000600052603260045260246000fd5b6020026020010181815250505080806115759061417a565b9150506113a9565b50809250505095945050505050565b60007f9f2df0fed2c77648de5860a4cc508cd0818c85b8b8a1ab4ceeef8d981c8956a66115c0816115bb611cc1565b6120bc565b612710831115611605576040517f08c379a00000000000000000000000000000000000000000000000000000000081526004016115fc90613b25565b60405180910390fd5b61160f60086125ab565b600061161b60086125c1565b905061162733826125cf565b8560096000838152602001908152602001600020908051906020019061164e929190612d92565b5084600a60008381526020019081526020016000209080519060200190611676929190612d92565b5033600c600083815260200190815260200160002060006101000a81548173ffffffffffffffffffffffffffffffffffffffff021916908373ffffffffffffffffffffffffffffffffffffffff1602179055506000600b600083815260200190815260200160002060006101000a81548160ff02191690831515021790555083600d60008381526020019081526020016000208190555080925050509392505050565b7f9f2df0fed2c77648de5860a4cc508cd0818c85b8b8a1ab4ceeef8d981c8956a681565b61174682610be2565b61175781611752611cc1565b6120bc565b611761838361223a565b505050565b7f9f2df0fed2c77648de5860a4cc508cd0818c85b8b8a1ab4ceeef8d981c8956a661179881611793611cc1565b6120bc565b600c600085815260200190815260200160002060009054906101000a900473ffffffffffffffffffffffffffffffffffffffff1673ffffffffffffffffffffffffffffffffffffffff163373ffffffffffffffffffffffffffffffffffffffff1614611839576040517f08c379a000000000000000000000000000000000000000000000000000000000815260040161183090613ae5565b60405180910390fd5b6000600e6000868152602001908152602001600020541461188f576040517f08c379a000000000000000000000000000000000000000000000000000000000815260040161188690613ca5565b60405180910390fd5b60001515600b600086815260200190815260200160002060009054906101000a900460ff161515146118f6576040517f08c379a00000000000000000000000000000000000000000000000000000000081526004016118ed90613d85565b60405180910390fd5b8260096000868152602001908152602001600020908051906020019061191d929190612d92565b5081600a60008681526020019081526020016000209080519060200190611945929190612d92565b506001600b600086815260200190815260200160002060006101000a81548160ff0219169083151502179055507fb4a5ddb5fc6e2ac17be5a0710e03e5439fddaf50533d45904451630ffa4d859e846040516119a19190613de5565b60405180910390a150505050565b6000600560008473ffffffffffffffffffffffffffffffffffffffff1673ffffffffffffffffffffffffffffffffffffffff16815260200190815260200160002060008373ffffffffffffffffffffffffffffffffffffffff1673ffffffffffffffffffffffffffffffffffffffff16815260200190815260200160002060009054906101000a900460ff16905092915050565b611a4b611cc1565b73ffffffffffffffffffffffffffffffffffffffff16611a69610fd0565b73ffffffffffffffffffffffffffffffffffffffff1614611abf576040517f08c379a0000000000000000000000000000000000000000000000000000000008152600401611ab690613d05565b60405180910390fd5b600073ffffffffffffffffffffffffffffffffffffffff168173ffffffffffffffffffffffffffffffffffffffff161415611b2f576040517f08c379a0000000000000000000000000000000000000000000000000000000008152600401611b2690613b85565b60405180910390fd5b611b388161231c565b50565b600a6020528060005260406000206000915090508054611b5a90614117565b80601f0160208091040260200160405190810160405280929190818152602001828054611b8690614117565b8015611bd35780601f10611ba857610100808354040283529160200191611bd3565b820191906000526020600020905b815481529060010190602001808311611bb657829003601f168201915b505050505081565b60007f7965db0b000000000000000000000000000000000000000000000000000000007bffffffffffffffffffffffffffffffffffffffffffffffffffffffff1916827bffffffffffffffffffffffffffffffffffffffffffffffffffffffff19161480611c4e5750611c4d8261279d565b5b9050919050565b60008073ffffffffffffffffffffffffffffffffffffffff166002600084815260200190815260200160002060009054906101000a900473ffffffffffffffffffffffffffffffffffffffff1673ffffffffffffffffffffffffffffffffffffffff1614159050919050565b600033905090565b816004600083815260200190815260200160002060006101000a81548173ffffffffffffffffffffffffffffffffffffffff021916908373ffffffffffffffffffffffffffffffffffffffff160217905550808273ffffffffffffffffffffffffffffffffffffffff16611d3c83610da3565b73ffffffffffffffffffffffffffffffffffffffff167f8c5be1e5ebec7d5bd14f71427d1e84f3dd0314c0f7b2291e5b200ac8c7c3b92560405160405180910390a45050565b6000611d8d82611c55565b611dcc576040517f08c379a0000000000000000000000000000000000000000000000000000000008152600401611dc390613c05565b60405180910390fd5b6000611dd783610da3565b90508073ffffffffffffffffffffffffffffffffffffffff168473ffffffffffffffffffffffffffffffffffffffff161480611e4657508373ffffffffffffffffffffffffffffffffffffffff16611e2e84610898565b73ffffffffffffffffffffffffffffffffffffffff16145b80611e575750611e5681856119af565b5b91505092915050565b8273ffffffffffffffffffffffffffffffffffffffff16611e8082610da3565b73ffffffffffffffffffffffffffffffffffffffff1614611ed6576040517f08c379a0000000000000000000000000000000000000000000000000000000008152600401611ecd90613d25565b60405180910390fd5b600073ffffffffffffffffffffffffffffffffffffffff168273ffffffffffffffffffffffffffffffffffffffff161415611f46576040517f08c379a0000000000000000000000000000000000000000000000000000000008152600401611f3d90613bc5565b60405180910390fd5b611f5183838361287f565b611f5c600082611cc9565b6001600360008573ffffffffffffffffffffffffffffffffffffffff1673ffffffffffffffffffffffffffffffffffffffff1681526020019081526020016000206000828254611fac9190613ff9565b925050819055506001600360008473ffffffffffffffffffffffffffffffffffffffff1673ffffffffffffffffffffffffffffffffffffffff16815260200190815260200160002060008282546120039190613f18565b92505081905550816002600083815260200190815260200160002060006101000a81548173ffffffffffffffffffffffffffffffffffffffff021916908373ffffffffffffffffffffffffffffffffffffffff160217905550808273ffffffffffffffffffffffffffffffffffffffff168473ffffffffffffffffffffffffffffffffffffffff167fddf252ad1be2c89b69c2b068fc378daa952ba7f163c4a11628f55a4df523b3ef60405160405180910390a4505050565b6120c68282610ffa565b612155576120eb8173ffffffffffffffffffffffffffffffffffffffff166014612884565b6120f98360001c6020612884565b60405160200161210a9291906139a1565b6040516020818303038152906040526040517f08c379a000000000000000000000000000000000000000000000000000000000815260040161214c9190613ac3565b60405180910390fd5b5050565b6121638282610ffa565b6122365760016007600084815260200190815260200160002060000160008373ffffffffffffffffffffffffffffffffffffffff1673ffffffffffffffffffffffffffffffffffffffff16815260200190815260200160002060006101000a81548160ff0219169083151502179055506121db611cc1565b73ffffffffffffffffffffffffffffffffffffffff168173ffffffffffffffffffffffffffffffffffffffff16837f2f8788117e7eff1d82e926ec794901d17c78024a50270940304540a733656f0d60405160405180910390a45b5050565b6122448282610ffa565b156123185760006007600084815260200190815260200160002060000160008373ffffffffffffffffffffffffffffffffffffffff1673ffffffffffffffffffffffffffffffffffffffff16815260200190815260200160002060006101000a81548160ff0219169083151502179055506122bd611cc1565b73ffffffffffffffffffffffffffffffffffffffff168173ffffffffffffffffffffffffffffffffffffffff16837ff6391f5c32d9c69d2a47ea670b442974b53935d1edc7fd64eb21e047a839171b60405160405180910390a45b5050565b6000600660009054906101000a900473ffffffffffffffffffffffffffffffffffffffff16905081600660006101000a81548173ffffffffffffffffffffffffffffffffffffffff021916908373ffffffffffffffffffffffffffffffffffffffff1602179055508173ffffffffffffffffffffffffffffffffffffffff168173ffffffffffffffffffffffffffffffffffffffff167f8be0079c531659141344cd1fd0a4f28419497f9722a3daafe3b4186f6b6457e060405160405180910390a35050565b8173ffffffffffffffffffffffffffffffffffffffff168373ffffffffffffffffffffffffffffffffffffffff161415612451576040517f08c379a000000000000000000000000000000000000000000000000000000000815260040161244890613be5565b60405180910390fd5b80600560008573ffffffffffffffffffffffffffffffffffffffff1673ffffffffffffffffffffffffffffffffffffffff16815260200190815260200160002060008473ffffffffffffffffffffffffffffffffffffffff1673ffffffffffffffffffffffffffffffffffffffff16815260200190815260200160002060006101000a81548160ff0219169083151502179055508173ffffffffffffffffffffffffffffffffffffffff168373ffffffffffffffffffffffffffffffffffffffff167f17307eab39ab6107e8899845ad3d59bd9653f200f220920489ca2b5937696c31836040516125429190613a8d565b60405180910390a3505050565b61255a848484611e60565b61256684848484612b7e565b6125a5576040517f08c379a000000000000000000000000000000000000000000000000000000000815260040161259c90613b65565b60405180910390fd5b50505050565b6001816000016000828254019250508190555050565b600081600001549050919050565b600073ffffffffffffffffffffffffffffffffffffffff168273ffffffffffffffffffffffffffffffffffffffff16141561263f576040517f08c379a000000000000000000000000000000000000000000000000000000000815260040161263690613cc5565b60405180910390fd5b61264881611c55565b15612688576040517f08c379a000000000000000000000000000000000000000000000000000000000815260040161267f90613ba5565b60405180910390fd5b6126946000838361287f565b6001600360008473ffffffffffffffffffffffffffffffffffffffff1673ffffffffffffffffffffffffffffffffffffffff16815260200190815260200160002060008282546126e49190613f18565b92505081905550816002600083815260200190815260200160002060006101000a81548173ffffffffffffffffffffffffffffffffffffffff021916908373ffffffffffffffffffffffffffffffffffffffff160217905550808273ffffffffffffffffffffffffffffffffffffffff16600073ffffffffffffffffffffffffffffffffffffffff167fddf252ad1be2c89b69c2b068fc378daa952ba7f163c4a11628f55a4df523b3ef60405160405180910390a45050565b60007f80ac58cd000000000000000000000000000000000000000000000000000000007bffffffffffffffffffffffffffffffffffffffffffffffffffffffff1916827bffffffffffffffffffffffffffffffffffffffffffffffffffffffff1916148061286857507f5b5e139f000000000000000000000000000000000000000000000000000000007bffffffffffffffffffffffffffffffffffffffffffffffffffffffff1916827bffffffffffffffffffffffffffffffffffffffffffffffffffffffff1916145b80612878575061287782612d15565b5b9050919050565b505050565b6060600060028360026128979190613f9f565b6128a19190613f18565b67ffffffffffffffff8111156128e0577f4e487b7100000000000000000000000000000000000000000000000000000000600052604160045260246000fd5b6040519080825280601f01601f1916602001820160405280156129125781602001600182028036833780820191505090505b5090507f300000000000000000000000000000000000000000000000000000000000000081600081518110612970577f4e487b7100000000000000000000000000000000000000000000000000000000600052603260045260246000fd5b60200101907effffffffffffffffffffffffffffffffffffffffffffffffffffffffffffff1916908160001a9053507f7800000000000000000000000000000000000000000000000000000000000000816001815181106129fa577f4e487b7100000000000000000000000000000000000000000000000000000000600052603260045260246000fd5b60200101907effffffffffffffffffffffffffffffffffffffffffffffffffffffffffffff1916908160001a90535060006001846002612a3a9190613f9f565b612a449190613f18565b90505b6001811115612b30577f3031323334353637383961626364656600000000000000000000000000000000600f861660108110612aac577f4e487b7100000000000000000000000000000000000000000000000000000000600052603260045260246000fd5b1a60f81b828281518110612ae9577f4e487b7100000000000000000000000000000000000000000000000000000000600052603260045260246000fd5b60200101907effffffffffffffffffffffffffffffffffffffffffffffffffffffffffffff1916908160001a905350600485901c945080612b29906140ed565b9050612a47565b5060008414612b74576040517f08c379a0000000000000000000000000000000000000000000000000000000008152600401612b6b90613b05565b60405180910390fd5b8091505092915050565b6000612b9f8473ffffffffffffffffffffffffffffffffffffffff16612d7f565b15612d08578373ffffffffffffffffffffffffffffffffffffffff1663150b7a02612bc8611cc1565b8786866040518563ffffffff1660e01b8152600401612bea94939291906139f6565b602060405180830381600087803b158015612c0457600080fd5b505af1925050508015612c3557506040513d601f19601f82011682018060405250810190612c3291906131b8565b60015b612cb8573d8060008114612c65576040519150601f19603f3d011682016040523d82523d6000602084013e612c6a565b606091505b50600081511415612cb0576040517f08c379a0000000000000000000000000000000000000000000000000000000008152600401612ca790613b65565b60405180910390fd5b805181602001fd5b63150b7a0260e01b7bffffffffffffffffffffffffffffffffffffffffffffffffffffffff1916817bffffffffffffffffffffffffffffffffffffffffffffffffffffffff191614915050612d0d565b600190505b949350505050565b60007f01ffc9a7000000000000000000000000000000000000000000000000000000007bffffffffffffffffffffffffffffffffffffffffffffffffffffffff1916827bffffffffffffffffffffffffffffffffffffffffffffffffffffffff1916149050919050565b600080823b905060008111915050919050565b828054612d9e90614117565b90600052602060002090601f016020900481019282612dc05760008555612e07565b82601f10612dd957805160ff1916838001178555612e07565b82800160010185558215612e07579182015b82811115612e06578251825591602001919060010190612deb565b5b509050612e149190612e18565b5090565b5b80821115612e31576000816000905550600101612e19565b5090565b6000612e48612e4384613e25565b613e00565b905082815260208101848484011115612e6057600080fd5b612e6b8482856140ab565b509392505050565b6000612e86612e8184613e56565b613e00565b905082815260208101848484011115612e9e57600080fd5b612ea98482856140ab565b509392505050565b600081359050612ec081614969565b92915050565b600081359050612ed581614980565b92915050565b600081359050612eea81614997565b92915050565b600081359050612eff816149ae565b92915050565b600081519050612f14816149ae565b92915050565b600082601f830112612f2b57600080fd5b8135612f3b848260208601612e35565b91505092915050565b600082601f830112612f5557600080fd5b8135612f65848260208601612e73565b91505092915050565b600081359050612f7d816149c5565b92915050565b600060208284031215612f9557600080fd5b6000612fa384828501612eb1565b91505092915050565b60008060408385031215612fbf57600080fd5b6000612fcd85828601612eb1565b9250506020612fde85828601612eb1565b9150509250929050565b600080600060608486031215612ffd57600080fd5b600061300b86828701612eb1565b935050602061301c86828701612eb1565b925050604061302d86828701612f6e565b9150509250925092565b6000806000806080858703121561304d57600080fd5b600061305b87828801612eb1565b945050602061306c87828801612eb1565b935050604061307d87828801612f6e565b925050606085013567ffffffffffffffff81111561309a57600080fd5b6130a687828801612f1a565b91505092959194509250565b600080604083850312156130c557600080fd5b60006130d385828601612eb1565b92505060206130e485828601612ec6565b9150509250929050565b6000806040838503121561310157600080fd5b600061310f85828601612eb1565b925050602061312085828601612f6e565b9150509250929050565b60006020828403121561313c57600080fd5b600061314a84828501612edb565b91505092915050565b6000806040838503121561316657600080fd5b600061317485828601612edb565b925050602061318585828601612eb1565b9150509250929050565b6000602082840312156131a157600080fd5b60006131af84828501612ef0565b91505092915050565b6000602082840312156131ca57600080fd5b60006131d884828501612f05565b91505092915050565b6000806000606084860312156131f657600080fd5b600084013567ffffffffffffffff81111561321057600080fd5b61321c86828701612f44565b935050602084013567ffffffffffffffff81111561323957600080fd5b61324586828701612f44565b925050604061325686828701612f6e565b9150509250925092565b60006020828403121561327257600080fd5b600061328084828501612f6e565b91505092915050565b60008060006060848603121561329e57600080fd5b60006132ac86828701612f6e565b935050602084013567ffffffffffffffff8111156132c957600080fd5b6132d586828701612f44565b925050604084013567ffffffffffffffff8111156132f257600080fd5b6132fe86828701612f44565b9150509250925092565b600080600080600060a0868803121561332057600080fd5b600061332e88828901612f6e565b955050602086013567ffffffffffffffff81111561334b57600080fd5b61335788828901612f44565b945050604086013567ffffffffffffffff81111561337457600080fd5b61338088828901612f44565b935050606061339188828901612f6e565b92505060806133a288828901612f6e565b9150509295509295909350565b600080604083850312156133c257600080fd5b60006133d085828601612f6e565b92505060206133e185828601612f6e565b9150509250929050565b60006133f78383613961565b60208301905092915050565b61340c8161402d565b82525050565b600061341d82613eac565b6134278185613eda565b935061343283613e87565b8060005b8381101561346357815161344a88826133eb565b975061345583613ecd565b925050600181019050613436565b5085935050505092915050565b6134798161403f565b82525050565b6134888161404b565b82525050565b600061349982613eb7565b6134a38185613eeb565b93506134b38185602086016140ba565b6134bc8161427f565b840191505092915050565b60006134d282613ec2565b6134dc8185613efc565b93506134ec8185602086016140ba565b6134f58161427f565b840191505092915050565b600061350b82613ec2565b6135158185613f0d565b93506135258185602086016140ba565b80840191505092915050565b6000815461353e81614117565b6135488186613f0d565b945060018216600081146135635760018114613574576135a7565b60ff198316865281860193506135a7565b61357d85613e97565b60005b8381101561359f57815481890152600182019150602081019050613580565b838801955050505b50505092915050565b60006135bd602583613efc565b91506135c882614290565b604082019050919050565b60006135e0602083613efc565b91506135eb826142df565b602082019050919050565b6000613603601a83613efc565b915061360e82614308565b602082019050919050565b6000613626602383613efc565b915061363182614331565b604082019050919050565b6000613649603283613efc565b915061365482614380565b604082019050919050565b600061366c602683613efc565b9150613677826143cf565b604082019050919050565b600061368f601c83613efc565b915061369a8261441e565b602082019050919050565b60006136b2602483613efc565b91506136bd82614447565b604082019050919050565b60006136d5601983613efc565b91506136e082614496565b602082019050919050565b60006136f8601c83613f0d565b9150613703826144bf565b601c82019050919050565b600061371b602c83613efc565b9150613726826144e8565b604082019050919050565b600061373e601983613efc565b915061374982614537565b602082019050919050565b6000613761603883613efc565b915061376c82614560565b604082019050919050565b6000613784602a83613efc565b915061378f826145af565b604082019050919050565b60006137a7602983613efc565b91506137b2826145fe565b604082019050919050565b60006137ca602183613efc565b91506137d58261464d565b604082019050919050565b60006137ed602083613efc565b91506137f88261469c565b602082019050919050565b6000613810602c83613efc565b915061381b826146c5565b604082019050919050565b6000613833602083613efc565b915061383e82614714565b602082019050919050565b6000613856602983613efc565b91506138618261473d565b604082019050919050565b6000613879602183613efc565b91506138848261478c565b604082019050919050565b600061389c603183613efc565b91506138a7826147db565b604082019050919050565b60006138bf602383613efc565b91506138ca8261482a565b604082019050919050565b60006138e2601783613f0d565b91506138ed82614879565b601782019050919050565b6000613905602e83613efc565b9150613910826148a2565b604082019050919050565b6000613928601183613f0d565b9150613933826148f1565b601182019050919050565b600061394b602f83613efc565b91506139568261491a565b604082019050919050565b61396a816140a1565b82525050565b613979816140a1565b82525050565b600061398a826136eb565b91506139968284613531565b915081905092915050565b60006139ac826138d5565b91506139b88285613500565b91506139c38261391b565b91506139cf8284613500565b91508190509392505050565b60006020820190506139f06000830184613403565b92915050565b6000608082019050613a0b6000830187613403565b613a186020830186613403565b613a256040830185613970565b8181036060830152613a37818461348e565b905095945050505050565b6000604082019050613a576000830185613403565b613a646020830184613970565b9392505050565b60006020820190508181036000830152613a858184613412565b905092915050565b6000602082019050613aa26000830184613470565b92915050565b6000602082019050613abd600083018461347f565b92915050565b60006020820190508181036000830152613add81846134c7565b905092915050565b60006020820190508181036000830152613afe816135b0565b9050919050565b60006020820190508181036000830152613b1e816135d3565b9050919050565b60006020820190508181036000830152613b3e816135f6565b9050919050565b60006020820190508181036000830152613b5e81613619565b9050919050565b60006020820190508181036000830152613b7e8161363c565b9050919050565b60006020820190508181036000830152613b9e8161365f565b9050919050565b60006020820190508181036000830152613bbe81613682565b9050919050565b60006020820190508181036000830152613bde816136a5565b9050919050565b60006020820190508181036000830152613bfe816136c8565b9050919050565b60006020820190508181036000830152613c1e8161370e565b9050919050565b60006020820190508181036000830152613c3e81613731565b9050919050565b60006020820190508181036000830152613c5e81613754565b9050919050565b60006020820190508181036000830152613c7e81613777565b9050919050565b60006020820190508181036000830152613c9e8161379a565b9050919050565b60006020820190508181036000830152613cbe816137bd565b9050919050565b60006020820190508181036000830152613cde816137e0565b9050919050565b60006020820190508181036000830152613cfe81613803565b9050919050565b60006020820190508181036000830152613d1e81613826565b9050919050565b60006020820190508181036000830152613d3e81613849565b9050919050565b60006020820190508181036000830152613d5e8161386c565b9050919050565b60006020820190508181036000830152613d7e8161388f565b9050919050565b60006020820190508181036000830152613d9e816138b2565b9050919050565b60006020820190508181036000830152613dbe816138f8565b9050919050565b60006020820190508181036000830152613dde8161393e565b9050919050565b6000602082019050613dfa6000830184613970565b92915050565b6000613e0a613e1b565b9050613e168282614149565b919050565b6000604051905090565b600067ffffffffffffffff821115613e4057613e3f614250565b5b613e498261427f565b9050602081019050919050565b600067ffffffffffffffff821115613e7157613e70614250565b5b613e7a8261427f565b9050602081019050919050565b6000819050602082019050919050565b60008190508160005260206000209050919050565b600081519050919050565b600081519050919050565b600081519050919050565b6000602082019050919050565b600082825260208201905092915050565b600082825260208201905092915050565b600082825260208201905092915050565b600081905092915050565b6000613f23826140a1565b9150613f2e836140a1565b9250827fffffffffffffffffffffffffffffffffffffffffffffffffffffffffffffffff03821115613f6357613f626141c3565b5b828201905092915050565b6000613f79826140a1565b9150613f84836140a1565b925082613f9457613f936141f2565b5b828204905092915050565b6000613faa826140a1565b9150613fb5836140a1565b9250817fffffffffffffffffffffffffffffffffffffffffffffffffffffffffffffffff0483118215151615613fee57613fed6141c3565b5b828202905092915050565b6000614004826140a1565b915061400f836140a1565b925082821015614022576140216141c3565b5b828203905092915050565b600061403882614081565b9050919050565b60008115159050919050565b6000819050919050565b60007fffffffff0000000000000000000000000000000000000000000000000000000082169050919050565b600073ffffffffffffffffffffffffffffffffffffffff82169050919050565b6000819050919050565b82818337600083830152505050565b60005b838110156140d85780820151818401526020810190506140bd565b838111156140e7576000848401525b50505050565b60006140f8826140a1565b9150600082141561410c5761410b6141c3565b5b600182039050919050565b6000600282049050600182168061412f57607f821691505b6020821081141561414357614142614221565b5b50919050565b6141528261427f565b810181811067ffffffffffffffff8211171561417157614170614250565b5b80604052505050565b6000614185826140a1565b91507fffffffffffffffffffffffffffffffffffffffffffffffffffffffffffffffff8214156141b8576141b76141c3565b5b600182019050919050565b7f4e487b7100000000000000000000000000000000000000000000000000000000600052601160045260246000fd5b7f4e487b7100000000000000000000000000000000000000000000000000000000600052601260045260246000fd5b7f4e487b7100000000000000000000000000000000000000000000000000000000600052602260045260246000fd5b7f4e487b7100000000000000000000000000000000000000000000000000000000600052604160045260246000fd5b6000601f19601f8301169050919050565b7f4f6e6c7920746865206172746973742063616e207374616d702074686569722060008201527f746f6b656e000000000000000000000000000000000000000000000000000000602082015250565b7f537472696e67733a20686578206c656e67746820696e73756666696369656e74600082015250565b7f45524332393831526f79616c746965733a20546f6f2068696768000000000000600082015250565b7f5468697320746f6b656e20686173206e6f7420796574206265656e207374616d60008201527f7065640000000000000000000000000000000000000000000000000000000000602082015250565b7f4552433732313a207472616e7366657220746f206e6f6e20455243373231526560008201527f63656976657220696d706c656d656e7465720000000000000000000000000000602082015250565b7f4f776e61626c653a206e6577206f776e657220697320746865207a65726f206160008201527f6464726573730000000000000000000000000000000000000000000000000000602082015250565b7f4552433732313a20746f6b656e20616c7265616479206d696e74656400000000600082015250565b7f4552433732313a207472616e7366657220746f20746865207a65726f2061646460008201527f7265737300000000000000000000000000000000000000000000000000000000602082015250565b7f4552433732313a20617070726f766520746f2063616c6c657200000000000000600082015250565b7f68747470733a2f2f697066732e696e667572612e696f2f697066732f00000000600082015250565b7f4552433732313a206f70657261746f7220717565727920666f72206e6f6e657860008201527f697374656e7420746f6b656e0000000000000000000000000000000000000000602082015250565b7f5468697320746f6b656e206973206e6f742061207072696e7400000000000000600082015250565b7f4552433732313a20617070726f76652063616c6c6572206973206e6f74206f7760008201527f6e6572206e6f7220617070726f76656420666f7220616c6c0000000000000000602082015250565b7f4552433732313a2062616c616e636520717565727920666f7220746865207a6560008201527f726f206164647265737300000000000000000000000000000000000000000000602082015250565b7f4552433732313a206f776e657220717565727920666f72206e6f6e657869737460008201527f656e7420746f6b656e0000000000000000000000000000000000000000000000602082015250565b7f4f6e6c79206f726967696e616c206e6674732063616e206265207374616d706560008201527f6400000000000000000000000000000000000000000000000000000000000000602082015250565b7f4552433732313a206d696e7420746f20746865207a65726f2061646472657373600082015250565b7f4552433732313a20617070726f76656420717565727920666f72206e6f6e657860008201527f697374656e7420746f6b656e0000000000000000000000000000000000000000602082015250565b7f4f776e61626c653a2063616c6c6572206973206e6f7420746865206f776e6572600082015250565b7f4552433732313a207472616e73666572206f6620746f6b656e2074686174206960008201527f73206e6f74206f776e0000000000000000000000000000000000000000000000602082015250565b7f4552433732313a20617070726f76616c20746f2063757272656e74206f776e6560008201527f7200000000000000000000000000000000000000000000000000000000000000602082015250565b7f4552433732313a207472616e736665722063616c6c6572206973206e6f74206f60008201527f776e6572206e6f7220617070726f766564000000000000000000000000000000602082015250565b7f5468697320746f6b656e2068617320616c7265616479206265656e207374616d60008201527f7065640000000000000000000000000000000000000000000000000000000000602082015250565b7f416363657373436f6e74726f6c3a206163636f756e7420000000000000000000600082015250565b7f4f6e6c7920746865206172746973742063616e206d696e74207072696e74732060008201527f6f6620746865697220746f6b656e000000000000000000000000000000000000602082015250565b7f206973206d697373696e6720726f6c6520000000000000000000000000000000600082015250565b7f416363657373436f6e74726f6c3a2063616e206f6e6c792072656e6f756e636560008201527f20726f6c657320666f722073656c660000000000000000000000000000000000602082015250565b6149728161402d565b811461497d57600080fd5b50565b6149898161403f565b811461499457600080fd5b50565b6149a08161404b565b81146149ab57600080fd5b50565b6149b781614055565b81146149c257600080fd5b50565b6149ce816140a1565b81146149d957600080fd5b5056fea26469706673582212204f4265d23df417f1aedeeddee443b091a2205edbe91bb79c9c0d7d086676935c64736f6c63430008040033",
  "immutableReferences": {},
  "source": "// contracts/ScabShop.sol\n// SPDX-License-Identifier: MIT\npragma solidity ^0.8.4;\n\nimport \"@openzeppelin/contracts/token/ERC721/IERC721.sol\";\nimport \"@openzeppelin/contracts/token/ERC721/ERC721.sol\";\nimport \"@openzeppelin/contracts/access/IAccessControl.sol\";\nimport \"@openzeppelin/contracts/access/AccessControl.sol\";\nimport \"@openzeppelin/contracts/access/Ownable.sol\";\nimport \"@openzeppelin/contracts/utils/Counters.sol\";\n\ncontract ScabShop is ERC721, Ownable, AccessControl {\n\n  using Counters for Counters.Counter;\n  Counters.Counter private ids;\n\n  mapping(uint256 => string) public metadataHash;\n  mapping(uint256 => string) public contentHash;\n\n  mapping(uint256 => bool) private stamps;\n  mapping(uint256 => address) private artists;\n  mapping(uint256 => uint256) private royalties;\n  mapping(uint256 => uint256) private prints;\n\n  bytes32 public constant MINTER_ROLE = keccak256(\"MINTER_ROLE\");\n\n  event Stamp(uint256 id);\n\n  constructor() ERC721('ScabShop', 'SCBSHP') {\n    _setupRole(DEFAULT_ADMIN_ROLE, msg.sender);\n    _setupRole(MINTER_ROLE, msg.sender);\n  }\n\n  function supportsInterface(bytes4 _interfaceId) public view virtual override(ERC721, AccessControl) returns (bool) {\n    return _interfaceId == type(IERC721).interfaceId ||\n           _interfaceId == type(IAccessControl).interfaceId ||\n           super.supportsInterface(_interfaceId);\n  }\n\n  function tokenURI(uint256 _id) public view override(ERC721) returns (string memory) {\n    return string(abi.encodePacked('https://ipfs.infura.io/ipfs/', metadataHash[_id]));\n  }\n\n  function metadataURI(uint256 _id) public view returns (string memory) {\n    return string(abi.encodePacked('https://ipfs.infura.io/ipfs/', metadataHash[_id]));\n  }\n\n  function contentURI(uint256 _id) public view returns (string memory) {\n    return string(abi.encodePacked('https://ipfs.infura.io/ipfs/', contentHash[_id]));\n  }\n\n  function originalOf(uint256 _id) public view returns (uint256) {\n    require(prints[_id] > 0, 'This token is not a print');\n    return prints[_id];\n  }\n\n  function artistOf(uint256 _id) public view returns (address) {\n    return artists[_id];\n  }\n\n  function mint(string memory _metadata, string memory _content, uint256 _royalty) public onlyRole(MINTER_ROLE) returns (uint256) {\n    require(_royalty <= 10000, 'ERC2981Royalties: Too high');\n    ids.increment();\n    uint256 _id = ids.current();\n    _mint(msg.sender, _id);\n    metadataHash[_id] = _metadata;\n    contentHash[_id] = _content;\n    artists[_id] = msg.sender;\n    stamps[_id] = false;\n    royalties[_id] = _royalty;\n    return _id;\n  }\n\n  function stamp(uint256 _id, string memory _metadata, string memory _content) public onlyRole(MINTER_ROLE) {\n    require(address(msg.sender) == artists[_id], 'Only the artist can stamp their token');\n    require(prints[_id] == 0, 'Only original nfts can be stamped');\n    require(stamps[_id] == false, 'This token has already been stamped');\n    metadataHash[_id] = _metadata;\n    contentHash[_id] = _content;\n    stamps[_id] = true;\n    emit Stamp(_id);\n  }\n\n  function isStamped(uint256 _id) public view returns (bool) {\n    return stamps[_id];\n  }\n\n  function mintPrints(uint256 _id, string memory _metadata, string memory _content, uint256 _royalty, uint256 _quantity) public onlyRole(MINTER_ROLE) returns (uint256[] memory) {\n    require(msg.sender == artists[_id], 'Only the artist can mint prints of their token');\n    require(stamps[_id] == true, 'This token has not yet been stamped');\n    require(_royalty <= 10000, 'ERC2981Royalties: Too high');\n    uint256[] memory _printIds = new uint[](125);\n    for(uint i = 0; i < _quantity; i++) {\n      ids.increment();\n      uint256 _printId = ids.current();\n      _mint(msg.sender, _printId);\n      metadataHash[_id] = _metadata;\n      contentHash[_id] = _content;\n      artists[_printId] = artists[_id];\n      stamps[_printId] = stamps[_id];\n      royalties[_printId] = _royalty;\n      prints[_printId] = _id;\n      _printIds[i] = _printId;\n    }\n    return _printIds;\n  }\n\n  function royaltyInfo(uint256 _id, uint256 value) external view returns (address receiver, uint256 royaltyAmount) {\n     receiver = artists[_id];\n     royaltyAmount = (value * royalties[_id]) / 10000;\n   }\n\n}\n",
  "sourcePath": "/home/nicwands/Documents/CTHDRL/scab-shop/scabshop-contracts/src/contracts/ScabShop.sol",
  "compiler": {
    "name": "solc",
    "version": "0.8.4+commit.c7e474f2.Emscripten.clang"
  },
  "schemaVersion": "3.4.4",
  "updatedAt": "2022-01-31T16:41:27.871Z",
  "networkType": "ethereum",
  "devdoc": {
    "kind": "dev",
    "methods": {
      "approve(address,uint256)": {
        "details": "See {IERC721-approve}."
      },
      "balanceOf(address)": {
        "details": "See {IERC721-balanceOf}."
      },
      "getApproved(uint256)": {
        "details": "See {IERC721-getApproved}."
      },
      "getRoleAdmin(bytes32)": {
        "details": "Returns the admin role that controls `role`. See {grantRole} and {revokeRole}. To change a role's admin, use {_setRoleAdmin}."
      },
      "grantRole(bytes32,address)": {
        "details": "Grants `role` to `account`. If `account` had not been already granted `role`, emits a {RoleGranted} event. Requirements: - the caller must have ``role``'s admin role."
      },
      "hasRole(bytes32,address)": {
        "details": "Returns `true` if `account` has been granted `role`."
      },
      "isApprovedForAll(address,address)": {
        "details": "See {IERC721-isApprovedForAll}."
      },
      "name()": {
        "details": "See {IERC721Metadata-name}."
      },
      "owner()": {
        "details": "Returns the address of the current owner."
      },
      "ownerOf(uint256)": {
        "details": "See {IERC721-ownerOf}."
      },
      "renounceOwnership()": {
        "details": "Leaves the contract without owner. It will not be possible to call `onlyOwner` functions anymore. Can only be called by the current owner. NOTE: Renouncing ownership will leave the contract without an owner, thereby removing any functionality that is only available to the owner."
      },
      "renounceRole(bytes32,address)": {
        "details": "Revokes `role` from the calling account. Roles are often managed via {grantRole} and {revokeRole}: this function's purpose is to provide a mechanism for accounts to lose their privileges if they are compromised (such as when a trusted device is misplaced). If the calling account had been revoked `role`, emits a {RoleRevoked} event. Requirements: - the caller must be `account`."
      },
      "revokeRole(bytes32,address)": {
        "details": "Revokes `role` from `account`. If `account` had been granted `role`, emits a {RoleRevoked} event. Requirements: - the caller must have ``role``'s admin role."
      },
      "safeTransferFrom(address,address,uint256)": {
        "details": "See {IERC721-safeTransferFrom}."
      },
      "safeTransferFrom(address,address,uint256,bytes)": {
        "details": "See {IERC721-safeTransferFrom}."
      },
      "setApprovalForAll(address,bool)": {
        "details": "See {IERC721-setApprovalForAll}."
      },
      "symbol()": {
        "details": "See {IERC721Metadata-symbol}."
      },
      "transferFrom(address,address,uint256)": {
        "details": "See {IERC721-transferFrom}."
      },
      "transferOwnership(address)": {
        "details": "Transfers ownership of the contract to a new account (`newOwner`). Can only be called by the current owner."
      }
    },
    "version": 1
  },
  "userdoc": {
    "kind": "user",
    "methods": {},
    "version": 1
  }
}